{
  "_format": "hh-sol-artifact-1",
  "contractName": "Mike",
  "sourceName": "contracts/Mike.sol",
  "abi": [
    {
      "inputs": [
        {
          "internalType": "string",
          "name": "_name",
          "type": "string"
        },
        {
          "internalType": "string",
          "name": "_symbol",
          "type": "string"
        },
        {
          "internalType": "string",
          "name": "_initBaseURI",
          "type": "string"
        }
      ],
      "stateMutability": "nonpayable",
      "type": "constructor"
    },
    {
      "anonymous": false,
      "inputs": [
        {
          "indexed": true,
          "internalType": "address",
          "name": "owner",
          "type": "address"
        },
        {
          "indexed": true,
          "internalType": "address",
          "name": "approved",
          "type": "address"
        },
        {
          "indexed": true,
          "internalType": "uint256",
          "name": "tokenId",
          "type": "uint256"
        }
      ],
      "name": "Approval",
      "type": "event"
    },
    {
      "anonymous": false,
      "inputs": [
        {
          "indexed": true,
          "internalType": "address",
          "name": "owner",
          "type": "address"
        },
        {
          "indexed": true,
          "internalType": "address",
          "name": "operator",
          "type": "address"
        },
        {
          "indexed": false,
          "internalType": "bool",
          "name": "approved",
          "type": "bool"
        }
      ],
      "name": "ApprovalForAll",
      "type": "event"
    },
    {
      "anonymous": false,
      "inputs": [
        {
          "indexed": true,
          "internalType": "address",
          "name": "previousOwner",
          "type": "address"
        },
        {
          "indexed": true,
          "internalType": "address",
          "name": "newOwner",
          "type": "address"
        }
      ],
      "name": "OwnershipTransferred",
      "type": "event"
    },
    {
      "anonymous": false,
      "inputs": [
        {
          "indexed": false,
          "internalType": "uint256",
          "name": "id",
          "type": "uint256"
        },
        {
          "indexed": true,
          "internalType": "address",
          "name": "buyer",
          "type": "address"
        },
        {
          "indexed": false,
          "internalType": "uint256",
          "name": "cost",
          "type": "uint256"
        },
        {
          "indexed": true,
          "internalType": "string",
          "name": "tokenURI",
          "type": "string"
        },
        {
          "indexed": false,
          "internalType": "uint256",
          "name": "timestamp",
          "type": "uint256"
        }
      ],
      "name": "Sale",
      "type": "event"
    },
    {
      "anonymous": false,
      "inputs": [
        {
          "indexed": true,
          "internalType": "address",
          "name": "from",
          "type": "address"
        },
        {
          "indexed": true,
          "internalType": "address",
          "name": "to",
          "type": "address"
        },
        {
          "indexed": true,
          "internalType": "uint256",
          "name": "tokenId",
          "type": "uint256"
        }
      ],
      "name": "Transfer",
      "type": "event"
    },
    {
      "inputs": [
        {
          "internalType": "address",
          "name": "to",
          "type": "address"
        },
        {
          "internalType": "uint256",
          "name": "tokenId",
          "type": "uint256"
        }
      ],
      "name": "approve",
      "outputs": [],
      "stateMutability": "nonpayable",
      "type": "function"
    },
    {
      "inputs": [
        {
          "internalType": "address",
          "name": "owner",
          "type": "address"
        }
      ],
      "name": "balanceOf",
      "outputs": [
        {
          "internalType": "uint256",
          "name": "",
          "type": "uint256"
        }
      ],
      "stateMutability": "view",
      "type": "function"
    },
    {
      "inputs": [],
      "name": "baseExtension",
      "outputs": [
        {
          "internalType": "string",
          "name": "",
          "type": "string"
        }
      ],
      "stateMutability": "view",
      "type": "function"
    },
    {
      "inputs": [],
      "name": "baseImage",
      "outputs": [
        {
          "internalType": "string",
          "name": "",
          "type": "string"
        }
      ],
      "stateMutability": "view",
      "type": "function"
    },
    {
      "inputs": [],
      "name": "baseURI",
      "outputs": [
        {
          "internalType": "string",
          "name": "",
          "type": "string"
        }
      ],
      "stateMutability": "view",
      "type": "function"
    },
    {
      "inputs": [],
      "name": "cost",
      "outputs": [
        {
          "internalType": "uint256",
          "name": "",
          "type": "uint256"
        }
      ],
      "stateMutability": "view",
      "type": "function"
    },
    {
      "inputs": [],
      "name": "getAllNFTs",
      "outputs": [
        {
          "components": [
            {
              "internalType": "uint256",
              "name": "id",
              "type": "uint256"
            },
            {
              "internalType": "address",
              "name": "buyer",
              "type": "address"
            },
            {
              "internalType": "uint256",
              "name": "cost",
              "type": "uint256"
            },
            {
              "internalType": "string",
              "name": "imageURL",
              "type": "string"
            },
            {
              "internalType": "uint256",
              "name": "timestamp",
              "type": "uint256"
            }
          ],
          "internalType": "struct Mike.SaleStruct[]",
          "name": "",
          "type": "tuple[]"
        }
      ],
      "stateMutability": "view",
      "type": "function"
    },
    {
      "inputs": [
        {
          "internalType": "uint256",
          "name": "tokenId",
          "type": "uint256"
        }
      ],
      "name": "getAnNFTs",
      "outputs": [
        {
          "components": [
            {
              "internalType": "uint256",
              "name": "id",
              "type": "uint256"
            },
            {
              "internalType": "address",
              "name": "buyer",
              "type": "address"
            },
            {
              "internalType": "uint256",
              "name": "cost",
              "type": "uint256"
            },
            {
              "internalType": "string",
              "name": "imageURL",
              "type": "string"
            },
            {
              "internalType": "uint256",
              "name": "timestamp",
              "type": "uint256"
            }
          ],
          "internalType": "struct Mike.SaleStruct",
          "name": "",
          "type": "tuple"
        }
      ],
      "stateMutability": "view",
      "type": "function"
    },
    {
      "inputs": [
        {
          "internalType": "uint256",
          "name": "tokenId",
          "type": "uint256"
        }
      ],
      "name": "getApproved",
      "outputs": [
        {
          "internalType": "address",
          "name": "",
          "type": "address"
        }
      ],
      "stateMutability": "view",
      "type": "function"
    },
    {
      "inputs": [
        {
          "internalType": "address",
          "name": "owner",
          "type": "address"
        },
        {
          "internalType": "address",
          "name": "operator",
          "type": "address"
        }
      ],
      "name": "isApprovedForAll",
      "outputs": [
        {
          "internalType": "bool",
          "name": "",
          "type": "bool"
        }
      ],
      "stateMutability": "view",
      "type": "function"
    },
    {
      "inputs": [],
      "name": "maxSupply",
      "outputs": [
        {
          "internalType": "uint256",
          "name": "",
          "type": "uint256"
        }
      ],
      "stateMutability": "view",
      "type": "function"
    },
    {
      "inputs": [],
      "name": "name",
      "outputs": [
        {
          "internalType": "string",
          "name": "",
          "type": "string"
        }
      ],
      "stateMutability": "view",
      "type": "function"
    },
    {
      "inputs": [],
      "name": "owner",
      "outputs": [
        {
          "internalType": "address",
          "name": "",
          "type": "address"
        }
      ],
      "stateMutability": "view",
      "type": "function"
    },
    {
      "inputs": [
        {
          "internalType": "uint256",
          "name": "tokenId",
          "type": "uint256"
        }
      ],
      "name": "ownerOf",
      "outputs": [
        {
          "internalType": "address",
          "name": "",
          "type": "address"
        }
      ],
      "stateMutability": "view",
      "type": "function"
    },
    {
      "inputs": [],
      "name": "paused",
      "outputs": [
        {
          "internalType": "bool",
          "name": "",
          "type": "bool"
        }
      ],
      "stateMutability": "view",
      "type": "function"
    },
    {
      "inputs": [
        {
          "internalType": "address",
          "name": "to",
          "type": "address"
        },
        {
          "internalType": "uint256",
          "name": "amount",
          "type": "uint256"
        }
      ],
      "name": "payTo",
      "outputs": [],
      "stateMutability": "nonpayable",
      "type": "function"
    },
    {
      "inputs": [],
      "name": "payToMint",
      "outputs": [],
      "stateMutability": "payable",
      "type": "function"
    },
    {
      "inputs": [],
      "name": "renounceOwnership",
      "outputs": [],
      "stateMutability": "nonpayable",
      "type": "function"
    },
    {
      "inputs": [
        {
          "internalType": "address",
          "name": "from",
          "type": "address"
        },
        {
          "internalType": "address",
          "name": "to",
          "type": "address"
        },
        {
          "internalType": "uint256",
          "name": "tokenId",
          "type": "uint256"
        }
      ],
      "name": "safeTransferFrom",
      "outputs": [],
      "stateMutability": "nonpayable",
      "type": "function"
    },
    {
      "inputs": [
        {
          "internalType": "address",
          "name": "from",
          "type": "address"
        },
        {
          "internalType": "address",
          "name": "to",
          "type": "address"
        },
        {
          "internalType": "uint256",
          "name": "tokenId",
          "type": "uint256"
        },
        {
          "internalType": "bytes",
          "name": "data",
          "type": "bytes"
        }
      ],
      "name": "safeTransferFrom",
      "outputs": [],
      "stateMutability": "nonpayable",
      "type": "function"
    },
    {
      "inputs": [
        {
          "internalType": "address",
          "name": "operator",
          "type": "address"
        },
        {
          "internalType": "bool",
          "name": "approved",
          "type": "bool"
        }
      ],
      "name": "setApprovalForAll",
      "outputs": [],
      "stateMutability": "nonpayable",
      "type": "function"
    },
    {
      "inputs": [
        {
          "internalType": "string",
          "name": "_newBaseURI",
          "type": "string"
        }
      ],
      "name": "setBaseURI",
      "outputs": [],
      "stateMutability": "nonpayable",
      "type": "function"
    },
    {
      "inputs": [
        {
          "internalType": "bool",
          "name": "_state",
          "type": "bool"
        }
      ],
      "name": "setPause",
      "outputs": [],
      "stateMutability": "nonpayable",
      "type": "function"
    },
    {
      "inputs": [
        {
          "internalType": "bytes4",
          "name": "interfaceId",
          "type": "bytes4"
        }
      ],
      "name": "supportsInterface",
      "outputs": [
        {
          "internalType": "bool",
          "name": "",
          "type": "bool"
        }
      ],
      "stateMutability": "view",
      "type": "function"
    },
    {
      "inputs": [],
      "name": "symbol",
      "outputs": [
        {
          "internalType": "string",
          "name": "",
          "type": "string"
        }
      ],
      "stateMutability": "view",
      "type": "function"
    },
    {
      "inputs": [
        {
          "internalType": "uint256",
          "name": "index",
          "type": "uint256"
        }
      ],
      "name": "tokenByIndex",
      "outputs": [
        {
          "internalType": "uint256",
          "name": "",
          "type": "uint256"
        }
      ],
      "stateMutability": "view",
      "type": "function"
    },
    {
      "inputs": [
        {
          "internalType": "address",
          "name": "owner",
          "type": "address"
        },
        {
          "internalType": "uint256",
          "name": "index",
          "type": "uint256"
        }
      ],
      "name": "tokenOfOwnerByIndex",
      "outputs": [
        {
          "internalType": "uint256",
          "name": "",
          "type": "uint256"
        }
      ],
      "stateMutability": "view",
      "type": "function"
    },
    {
      "inputs": [
        {
          "internalType": "uint256",
          "name": "tokenId",
          "type": "uint256"
        }
      ],
      "name": "tokenURI",
      "outputs": [
        {
          "internalType": "string",
          "name": "",
          "type": "string"
        }
      ],
      "stateMutability": "view",
      "type": "function"
    },
    {
      "inputs": [],
      "name": "totalSupply",
      "outputs": [
        {
          "internalType": "uint256",
          "name": "",
          "type": "uint256"
        }
      ],
      "stateMutability": "view",
      "type": "function"
    },
    {
      "inputs": [
        {
          "internalType": "address",
          "name": "from",
          "type": "address"
        },
        {
          "internalType": "address",
          "name": "to",
          "type": "address"
        },
        {
          "internalType": "uint256",
          "name": "tokenId",
          "type": "uint256"
        }
      ],
      "name": "transferFrom",
      "outputs": [],
      "stateMutability": "nonpayable",
      "type": "function"
    },
    {
      "inputs": [
        {
          "internalType": "address",
          "name": "newOwner",
          "type": "address"
        }
      ],
      "name": "transferOwnership",
      "outputs": [],
      "stateMutability": "nonpayable",
      "type": "function"
    }
  ],
  "bytecode": "0x60c0604052600560809081526402e776562760dc1b60a052600c9062000026908262000267565b50604080518082019091526005815264173539b7b760d91b6020820152600d9062000052908262000267565b5066038d7ea4c68000600e556063600f556010805460ff191690553480156200007a57600080fd5b5060405162002a2438038062002a248339810160408190526200009d91620003e5565b82826000620000ad838262000267565b506001620000bc828262000267565b505050620000d9620000d3620000ed60201b60201c565b620000f1565b620000e48162000143565b50505062000476565b3390565b600a80546001600160a01b038381166001600160a01b0319831681179093556040519116919082907f8be0079c531659141344cd1fd0a4f28419497f9722a3daafe3b4186f6b6457e090600090a35050565b6200014d6200015f565b600b6200015b828262000267565b5050565b600a546001600160a01b03163314620001be5760405162461bcd60e51b815260206004820181905260248201527f4f776e61626c653a2063616c6c6572206973206e6f7420746865206f776e6572604482015260640160405180910390fd5b565b634e487b7160e01b600052604160045260246000fd5b600181811c90821680620001eb57607f821691505b6020821081036200020c57634e487b7160e01b600052602260045260246000fd5b50919050565b601f82111562000262576000816000526020600020601f850160051c810160208610156200023d5750805b601f850160051c820191505b818110156200025e5782815560010162000249565b5050505b505050565b81516001600160401b03811115620002835762000283620001c0565b6200029b81620002948454620001d6565b8462000212565b602080601f831160018114620002d35760008415620002ba5750858301515b600019600386901b1c1916600185901b1785556200025e565b600085815260208120601f198616915b828110156200030457888601518255948401946001909101908401620002e3565b5085821015620003235787850151600019600388901b60f8161c191681555b5050505050600190811b01905550565b600082601f8301126200034557600080fd5b81516001600160401b0380821115620003625762000362620001c0565b604051601f8301601f19908116603f011681019082821181831017156200038d576200038d620001c0565b8160405283815260209250866020858801011115620003ab57600080fd5b600091505b83821015620003cf5785820183015181830184015290820190620003b0565b6000602085830101528094505050505092915050565b600080600060608486031215620003fb57600080fd5b83516001600160401b03808211156200041357600080fd5b620004218783880162000333565b945060208601519150808211156200043857600080fd5b620004468783880162000333565b935060408601519150808211156200045d57600080fd5b506200046c8682870162000333565b9150509250925092565b61259e80620004866000396000f3fe6080604052600436106101d85760003560e01c806368ef9d3c11610102578063b88d4fde11610095578063d5abeb0111610064578063d5abeb011461051d578063e0391b0914610533578063e985e9c514610555578063f2fde38b1461059e57600080fd5b8063b88d4fde146104a8578063bedb86fb146104c8578063c6682862146104e8578063c87b56dd146104fd57600080fd5b80637bf08621116100d15780637bf08621146104355780638da5cb5b1461045557806395d89b4114610473578063a22cb4651461048857600080fd5b806368ef9d3c146103be5780636c0360eb146103eb57806370a0823114610400578063715018a61461042057600080fd5b806323b872dd1161017a578063509c718011610149578063509c71801461035c57806355f804b3146103645780635c975abb146103845780636352211e1461039e57600080fd5b806323b872dd146102dc5780632f745c59146102fc57806342842e0e1461031c5780634f6ccce71461033c57600080fd5b8063081812fc116101b6578063081812fc14610249578063095ea7b31461028157806313faede6146102a357806318160ddd146102c757600080fd5b806301ffc9a7146101dd57806303b0f38d1461021257806306fdde0314610234575b600080fd5b3480156101e957600080fd5b506101fd6101f8366004611de4565b6105be565b60405190151581526020015b60405180910390f35b34801561021e57600080fd5b506102276105e9565b6040516102099190611e51565b34801561024057600080fd5b50610227610677565b34801561025557600080fd5b50610269610264366004611e64565b610709565b6040516001600160a01b039091168152602001610209565b34801561028d57600080fd5b506102a161029c366004611e99565b610730565b005b3480156102af57600080fd5b506102b9600e5481565b604051908152602001610209565b3480156102d357600080fd5b506008546102b9565b3480156102e857600080fd5b506102a16102f7366004611ec3565b61084a565b34801561030857600080fd5b506102b9610317366004611e99565b61087b565b34801561032857600080fd5b506102a1610337366004611ec3565b610911565b34801561034857600080fd5b506102b9610357366004611e64565b61092c565b6102a16109bf565b34801561037057600080fd5b506102a161037f366004611f8b565b610c1a565b34801561039057600080fd5b506010546101fd9060ff1681565b3480156103aa57600080fd5b506102696103b9366004611e64565b610c32565b3480156103ca57600080fd5b506103de6103d9366004611e64565b610c92565b6040516102099190612023565b3480156103f757600080fd5b50610227610de9565b34801561040c57600080fd5b506102b961041b366004612036565b610df6565b34801561042c57600080fd5b506102a1610e7c565b34801561044157600080fd5b506102a1610450366004611e99565b610e90565b34801561046157600080fd5b50600a546001600160a01b0316610269565b34801561047f57600080fd5b50610227610ef8565b34801561049457600080fd5b506102a16104a3366004612061565b610f07565b3480156104b457600080fd5b506102a16104c3366004612094565b610f12565b3480156104d457600080fd5b506102a16104e3366004612110565b610f4a565b3480156104f457600080fd5b50610227610f65565b34801561050957600080fd5b50610227610518366004611e64565b610f72565b34801561052957600080fd5b506102b9600f5481565b34801561053f57600080fd5b50610548611050565b604051610209919061212b565b34801561056157600080fd5b506101fd61057036600461218f565b6001600160a01b03918216600090815260056020908152604080832093909416825291909152205460ff1690565b3480156105aa57600080fd5b506102a16105b9366004612036565b611176565b60006001600160e01b0319821663780e9d6360e01b14806105e357506105e3826111ef565b92915050565b600c80546105f6906121b9565b80601f0160208091040260200160405190810160405280929190818152602001828054610622906121b9565b801561066f5780601f106106445761010080835404028352916020019161066f565b820191906000526020600020905b81548152906001019060200180831161065257829003601f168201915b505050505081565b606060008054610686906121b9565b80601f01602080910402602001604051908101604052809291908181526020018280546106b2906121b9565b80156106ff5780601f106106d4576101008083540402835291602001916106ff565b820191906000526020600020905b8154815290600101906020018083116106e257829003601f168201915b5050505050905090565b60006107148261123f565b506000908152600460205260409020546001600160a01b031690565b600061073b82610c32565b9050806001600160a01b0316836001600160a01b0316036107ad5760405162461bcd60e51b815260206004820152602160248201527f4552433732313a20617070726f76616c20746f2063757272656e74206f776e656044820152603960f91b60648201526084015b60405180910390fd5b336001600160a01b03821614806107c957506107c98133610570565b61083b5760405162461bcd60e51b815260206004820152603d60248201527f4552433732313a20617070726f76652063616c6c6572206973206e6f7420746f60448201527f6b656e206f776e6572206f7220617070726f76656420666f7220616c6c00000060648201526084016107a4565b610845838361129e565b505050565b610854338261130c565b6108705760405162461bcd60e51b81526004016107a4906121f3565b61084583838361138b565b600061088683610df6565b82106108e85760405162461bcd60e51b815260206004820152602b60248201527f455243373231456e756d657261626c653a206f776e657220696e646578206f7560448201526a74206f6620626f756e647360a81b60648201526084016107a4565b506001600160a01b03919091166000908152600660209081526040808320938352929052205490565b61084583838360405180602001604052806000815250610f12565b600061093760085490565b821061099a5760405162461bcd60e51b815260206004820152602c60248201527f455243373231456e756d657261626c653a20676c6f62616c20696e646578206f60448201526b7574206f6620626f756e647360a01b60648201526084016107a4565b600882815481106109ad576109ad612240565b90600052602060002001549050919050565b60006109ca60085490565b60105490915060ff1615610a205760405162461bcd60e51b815260206004820152601760248201527f4e46547320756e646572206d61696e74656e616e63652100000000000000000060448201526064016107a4565b600f54811115610a7c5760405162461bcd60e51b815260206004820152602160248201527f536f7272792c20616c6c204e4654732068617665206265656e206d696e7465646044820152602160f81b60648201526084016107a4565b60003411610acc5760405162461bcd60e51b815260206004820152601a60248201527f457468657220746f6f206c6f7720666f72206d696e74696e672100000000000060448201526064016107a4565b600a546001600160a01b03163314610aed57600e54341015610aed57600080fd5b610b0133610afc83600161226c565b6114fc565b60116040518060a00160405280836001610b1b919061226c565b8152336020820152346040820152606001610b3a61051885600161226c565b81524260209182015282546001808201855560009485529382902083516005909202019081559082015192810180546001600160a01b0319166001600160a01b03909416939093179092556040810151600283015560608101519091906003820190610ba690826122cf565b5060809190910151600490910155610bc261051882600161226c565b604051610bcf919061238f565b6040805191829003822083835234602084015242838301529051909133917fb9508407a6eccb191d8da3286f4173697cf95604e9ea192fe5ab7c862b5221f69181900360600190a350565b610c22611516565b600b610c2e82826122cf565b5050565b6000818152600260205260408120546001600160a01b0316806105e35760405162461bcd60e51b8152602060048201526018602482015277115490cdcc8c4e881a5b9d985b1a59081d1bdad95b88125160421b60448201526064016107a4565b610ccd6040518060a001604052806000815260200160006001600160a01b031681526020016000815260200160608152602001600081525090565b6011610cda6001846123ab565b81548110610cea57610cea612240565b90600052602060002090600502016040518060a0016040529081600082015481526020016001820160009054906101000a90046001600160a01b03166001600160a01b03166001600160a01b0316815260200160028201548152602001600382018054610d56906121b9565b80601f0160208091040260200160405190810160405280929190818152602001828054610d82906121b9565b8015610dcf5780601f10610da457610100808354040283529160200191610dcf565b820191906000526020600020905b815481529060010190602001808311610db257829003601f168201915b505050505081526020016004820154815250509050919050565b600b80546105f6906121b9565b60006001600160a01b038216610e605760405162461bcd60e51b815260206004820152602960248201527f4552433732313a2061646472657373207a65726f206973206e6f7420612076616044820152683634b21037bbb732b960b91b60648201526084016107a4565b506001600160a01b031660009081526003602052604090205490565b610e84611516565b610e8e6000611570565b565b610e98611516565b6000826001600160a01b03168260405160006040518083038185875af1925050503d8060008114610ee5576040519150601f19603f3d011682016040523d82523d6000602084013e610eea565b606091505b505090508061084557600080fd5b606060018054610686906121b9565b610c2e3383836115c2565b610f1c338361130c565b610f385760405162461bcd60e51b81526004016107a4906121f3565b610f4484848484611690565b50505050565b610f52611516565b6010805460ff1916911515919091179055565b600d80546105f6906121b9565b6000818152600260205260409020546060906001600160a01b0316610ff15760405162461bcd60e51b815260206004820152602f60248201527f4552433732314d657461646174613a2055524920717565727920666f72206e6f60448201526e3732bc34b9ba32b73a103a37b5b2b760891b60648201526084016107a4565b6000610ffb6116c3565b9050600081511161101b5760405180602001604052806000815250611049565b80611025846116d2565b600d604051602001611039939291906123be565b6040516020818303038152906040525b9392505050565b60606011805480602002602001604051908101604052809291908181526020016000905b8282101561116d5760008481526020908190206040805160a081018252600586029092018054835260018101546001600160a01b0316938301939093526002830154908201526003820180549192916060840191906110d2906121b9565b80601f01602080910402602001604051908101604052809291908181526020018280546110fe906121b9565b801561114b5780601f106111205761010080835404028352916020019161114b565b820191906000526020600020905b81548152906001019060200180831161112e57829003601f168201915b5050505050815260200160048201548152505081526020019060010190611074565b50505050905090565b61117e611516565b6001600160a01b0381166111e35760405162461bcd60e51b815260206004820152602660248201527f4f776e61626c653a206e6577206f776e657220697320746865207a65726f206160448201526564647265737360d01b60648201526084016107a4565b6111ec81611570565b50565b60006001600160e01b031982166380ac58cd60e01b148061122057506001600160e01b03198216635b5e139f60e01b145b806105e357506301ffc9a760e01b6001600160e01b03198316146105e3565b6000818152600260205260409020546001600160a01b03166111ec5760405162461bcd60e51b8152602060048201526018602482015277115490cdcc8c4e881a5b9d985b1a59081d1bdad95b88125160421b60448201526064016107a4565b600081815260046020526040902080546001600160a01b0319166001600160a01b03841690811790915581906112d382610c32565b6001600160a01b03167f8c5be1e5ebec7d5bd14f71427d1e84f3dd0314c0f7b2291e5b200ac8c7c3b92560405160405180910390a45050565b60008061131883610c32565b9050806001600160a01b0316846001600160a01b0316148061135f57506001600160a01b0380821660009081526005602090815260408083209388168352929052205460ff165b806113835750836001600160a01b031661137884610709565b6001600160a01b0316145b949350505050565b826001600160a01b031661139e82610c32565b6001600160a01b0316146113c45760405162461bcd60e51b81526004016107a490612461565b6001600160a01b0382166114265760405162461bcd60e51b8152602060048201526024808201527f4552433732313a207472616e7366657220746f20746865207a65726f206164646044820152637265737360e01b60648201526084016107a4565b6114338383836001611765565b826001600160a01b031661144682610c32565b6001600160a01b03161461146c5760405162461bcd60e51b81526004016107a490612461565b600081815260046020908152604080832080546001600160a01b03199081169091556001600160a01b0387811680865260038552838620805460001901905590871680865283862080546001019055868652600290945282852080549092168417909155905184937fddf252ad1be2c89b69c2b068fc378daa952ba7f163c4a11628f55a4df523b3ef91a4505050565b610c2e828260405180602001604052806000815250611899565b600a546001600160a01b03163314610e8e5760405162461bcd60e51b815260206004820181905260248201527f4f776e61626c653a2063616c6c6572206973206e6f7420746865206f776e657260448201526064016107a4565b600a80546001600160a01b038381166001600160a01b0319831681179093556040519116919082907f8be0079c531659141344cd1fd0a4f28419497f9722a3daafe3b4186f6b6457e090600090a35050565b816001600160a01b0316836001600160a01b0316036116235760405162461bcd60e51b815260206004820152601960248201527f4552433732313a20617070726f766520746f2063616c6c65720000000000000060448201526064016107a4565b6001600160a01b03838116600081815260056020908152604080832094871680845294825291829020805460ff191686151590811790915591519182527f17307eab39ab6107e8899845ad3d59bd9653f200f220920489ca2b5937696c31910160405180910390a3505050565b61169b84848461138b565b6116a7848484846118cc565b610f445760405162461bcd60e51b81526004016107a4906124a6565b6060600b8054610686906121b9565b606060006116df836119cd565b600101905060008167ffffffffffffffff8111156116ff576116ff611eff565b6040519080825280601f01601f191660200182016040528015611729576020820181803683370190505b5090508181016020015b600019016f181899199a1a9b1b9c1cb0b131b232b360811b600a86061a8153600a850494508461173357509392505050565b60018111156117d45760405162461bcd60e51b815260206004820152603560248201527f455243373231456e756d657261626c653a20636f6e7365637574697665207472604482015274185b9cd9995c9cc81b9bdd081cdd5c1c1bdc9d1959605a1b60648201526084016107a4565b816001600160a01b0385166118305761182b81600880546000838152600960205260408120829055600182018355919091527ff3f7a9fe364faab93b216da50a3214154f22a0a2b415b23a84c8169e8b636ee30155565b611853565b836001600160a01b0316856001600160a01b031614611853576118538582611aa5565b6001600160a01b03841661186f5761186a81611b42565b611892565b846001600160a01b0316846001600160a01b031614611892576118928482611bf1565b5050505050565b6118a38383611c35565b6118b060008484846118cc565b6108455760405162461bcd60e51b81526004016107a4906124a6565b60006001600160a01b0384163b156119c257604051630a85bd0160e11b81526001600160a01b0385169063150b7a02906119109033908990889088906004016124f8565b6020604051808303816000875af192505050801561194b575060408051601f3d908101601f1916820190925261194891810190612535565b60015b6119a8573d808015611979576040519150601f19603f3d011682016040523d82523d6000602084013e61197e565b606091505b5080516000036119a05760405162461bcd60e51b81526004016107a4906124a6565b805181602001fd5b6001600160e01b031916630a85bd0160e11b149050611383565b506001949350505050565b60008072184f03e93ff9f4daa797ed6e38ed64bf6a1f0160401b8310611a0c5772184f03e93ff9f4daa797ed6e38ed64bf6a1f0160401b830492506040015b6d04ee2d6d415b85acef81000000008310611a38576d04ee2d6d415b85acef8100000000830492506020015b662386f26fc100008310611a5657662386f26fc10000830492506010015b6305f5e1008310611a6e576305f5e100830492506008015b6127108310611a8257612710830492506004015b60648310611a94576064830492506002015b600a83106105e35760010192915050565b60006001611ab284610df6565b611abc91906123ab565b600083815260076020526040902054909150808214611b0f576001600160a01b03841660009081526006602090815260408083208584528252808320548484528184208190558352600790915290208190555b5060009182526007602090815260408084208490556001600160a01b039094168352600681528383209183525290812055565b600854600090611b54906001906123ab565b60008381526009602052604081205460088054939450909284908110611b7c57611b7c612240565b906000526020600020015490508060088381548110611b9d57611b9d612240565b6000918252602080832090910192909255828152600990915260408082208490558582528120556008805480611bd557611bd5612552565b6001900381819060005260206000200160009055905550505050565b6000611bfc83610df6565b6001600160a01b039093166000908152600660209081526040808320868452825280832085905593825260079052919091209190915550565b6001600160a01b038216611c8b5760405162461bcd60e51b815260206004820181905260248201527f4552433732313a206d696e7420746f20746865207a65726f206164647265737360448201526064016107a4565b6000818152600260205260409020546001600160a01b031615611cf05760405162461bcd60e51b815260206004820152601c60248201527f4552433732313a20746f6b656e20616c7265616479206d696e7465640000000060448201526064016107a4565b611cfe600083836001611765565b6000818152600260205260409020546001600160a01b031615611d635760405162461bcd60e51b815260206004820152601c60248201527f4552433732313a20746f6b656e20616c7265616479206d696e7465640000000060448201526064016107a4565b6001600160a01b038216600081815260036020908152604080832080546001019055848352600290915280822080546001600160a01b0319168417905551839291907fddf252ad1be2c89b69c2b068fc378daa952ba7f163c4a11628f55a4df523b3ef908290a45050565b6001600160e01b0319811681146111ec57600080fd5b600060208284031215611df657600080fd5b813561104981611dce565b60005b83811015611e1c578181015183820152602001611e04565b50506000910152565b60008151808452611e3d816020860160208601611e01565b601f01601f19169290920160200192915050565b6020815260006110496020830184611e25565b600060208284031215611e7657600080fd5b5035919050565b80356001600160a01b0381168114611e9457600080fd5b919050565b60008060408385031215611eac57600080fd5b611eb583611e7d565b946020939093013593505050565b600080600060608486031215611ed857600080fd5b611ee184611e7d565b9250611eef60208501611e7d565b9150604084013590509250925092565b634e487b7160e01b600052604160045260246000fd5b600067ffffffffffffffff80841115611f3057611f30611eff565b604051601f8501601f19908116603f01168101908282118183101715611f5857611f58611eff565b81604052809350858152868686011115611f7157600080fd5b858560208301376000602087830101525050509392505050565b600060208284031215611f9d57600080fd5b813567ffffffffffffffff811115611fb457600080fd5b8201601f81018413611fc557600080fd5b61138384823560208401611f15565b8051825260018060a01b036020820151166020830152604081015160408301526000606082015160a0606085015261200f60a0850182611e25565b608093840151949093019390935250919050565b6020815260006110496020830184611fd4565b60006020828403121561204857600080fd5b61104982611e7d565b80358015158114611e9457600080fd5b6000806040838503121561207457600080fd5b61207d83611e7d565b915061208b60208401612051565b90509250929050565b600080600080608085870312156120aa57600080fd5b6120b385611e7d565b93506120c160208601611e7d565b925060408501359150606085013567ffffffffffffffff8111156120e457600080fd5b8501601f810187136120f557600080fd5b61210487823560208401611f15565b91505092959194509250565b60006020828403121561212257600080fd5b61104982612051565b600060208083016020845280855180835260408601915060408160051b87010192506020870160005b8281101561218257603f19888603018452612170858351611fd4565b94509285019290850190600101612154565b5092979650505050505050565b600080604083850312156121a257600080fd5b6121ab83611e7d565b915061208b60208401611e7d565b600181811c908216806121cd57607f821691505b6020821081036121ed57634e487b7160e01b600052602260045260246000fd5b50919050565b6020808252602d908201527f4552433732313a2063616c6c6572206973206e6f7420746f6b656e206f776e6560408201526c1c881bdc88185c1c1c9bdd9959609a1b606082015260800190565b634e487b7160e01b600052603260045260246000fd5b634e487b7160e01b600052601160045260246000fd5b808201808211156105e3576105e3612256565b601f821115610845576000816000526020600020601f850160051c810160208610156122a85750805b601f850160051c820191505b818110156122c7578281556001016122b4565b505050505050565b815167ffffffffffffffff8111156122e9576122e9611eff565b6122fd816122f784546121b9565b8461227f565b602080601f831160018114612332576000841561231a5750858301515b600019600386901b1c1916600185901b1785556122c7565b600085815260208120601f198616915b8281101561236157888601518255948401946001909101908401612342565b508582101561237f5787850151600019600388901b60f8161c191681555b5050505050600190811b01905550565b600082516123a1818460208701611e01565b9190910192915050565b818103818111156105e3576105e3612256565b6000845160206123d2828560208a01611e01565b8551918401916123e6818460208a01611e01565b85549201916000906123f7816121b9565b6001828116801561240f576001811461242457612451565b60ff1984168752821515830287019450612451565b89600052602060002060005b8481101561244957815489820152908301908701612430565b505082870194505b50929a9950505050505050505050565b60208082526025908201527f4552433732313a207472616e736665722066726f6d20696e636f72726563742060408201526437bbb732b960d91b606082015260800190565b60208082526032908201527f4552433732313a207472616e7366657220746f206e6f6e20455243373231526560408201527131b2b4bb32b91034b6b83632b6b2b73a32b960711b606082015260800190565b6001600160a01b038581168252841660208201526040810183905260806060820181905260009061252b90830184611e25565b9695505050505050565b60006020828403121561254757600080fd5b815161104981611dce565b634e487b7160e01b600052603160045260246000fdfea2646970667358221220d196045d536f60551ecd77b84b823b577f81052b295502e5bef605b73654856764736f6c63430008180033",
  "linkReferences": {},
  "deployedLinkReferences": {}
}