{
  "_format": "hh-sol-artifact-1",
  "contractName": "Mike",
  "sourceName": "contracts/Mike.sol",
  "abi": [
    {
      "inputs": [
        {
          "internalType": "string",
          "name": "_name",
          "type": "string"
        },
        {
          "internalType": "string",
          "name": "_symbol",
          "type": "string"
        },
        {
          "internalType": "string",
          "name": "_initBaseURI",
          "type": "string"
        }
      ],
      "stateMutability": "nonpayable",
      "type": "constructor"
    },
    {
      "anonymous": false,
      "inputs": [
        {
          "indexed": true,
          "internalType": "address",
          "name": "owner",
          "type": "address"
        },
        {
          "indexed": true,
          "internalType": "address",
          "name": "approved",
          "type": "address"
        },
        {
          "indexed": true,
          "internalType": "uint256",
          "name": "tokenId",
          "type": "uint256"
        }
      ],
      "name": "Approval",
      "type": "event"
    },
    {
      "anonymous": false,
      "inputs": [
        {
          "indexed": true,
          "internalType": "address",
          "name": "owner",
          "type": "address"
        },
        {
          "indexed": true,
          "internalType": "address",
          "name": "operator",
          "type": "address"
        },
        {
          "indexed": false,
          "internalType": "bool",
          "name": "approved",
          "type": "bool"
        }
      ],
      "name": "ApprovalForAll",
      "type": "event"
    },
    {
      "anonymous": false,
      "inputs": [
        {
          "indexed": true,
          "internalType": "address",
          "name": "previousOwner",
          "type": "address"
        },
        {
          "indexed": true,
          "internalType": "address",
          "name": "newOwner",
          "type": "address"
        }
      ],
      "name": "OwnershipTransferred",
      "type": "event"
    },
    {
      "anonymous": false,
      "inputs": [
        {
          "indexed": false,
          "internalType": "uint256",
          "name": "id",
          "type": "uint256"
        },
        {
          "indexed": true,
          "internalType": "address",
          "name": "buyer",
          "type": "address"
        },
        {
          "indexed": false,
          "internalType": "uint256",
          "name": "cost",
          "type": "uint256"
        },
        {
          "indexed": true,
          "internalType": "string",
          "name": "tokenURI",
          "type": "string"
        },
        {
          "indexed": false,
          "internalType": "uint256",
          "name": "timestamp",
          "type": "uint256"
        }
      ],
      "name": "Sale",
      "type": "event"
    },
    {
      "anonymous": false,
      "inputs": [
        {
          "indexed": true,
          "internalType": "address",
          "name": "from",
          "type": "address"
        },
        {
          "indexed": true,
          "internalType": "address",
          "name": "to",
          "type": "address"
        },
        {
          "indexed": true,
          "internalType": "uint256",
          "name": "tokenId",
          "type": "uint256"
        }
      ],
      "name": "Transfer",
      "type": "event"
    },
    {
      "inputs": [
        {
          "internalType": "address",
          "name": "to",
          "type": "address"
        },
        {
          "internalType": "uint256",
          "name": "tokenId",
          "type": "uint256"
        }
      ],
      "name": "approve",
      "outputs": [],
      "stateMutability": "nonpayable",
      "type": "function"
    },
    {
      "inputs": [
        {
          "internalType": "address",
          "name": "owner",
          "type": "address"
        }
      ],
      "name": "balanceOf",
      "outputs": [
        {
          "internalType": "uint256",
          "name": "",
          "type": "uint256"
        }
      ],
      "stateMutability": "view",
      "type": "function"
    },
    {
      "inputs": [],
      "name": "baseExtension",
      "outputs": [
        {
          "internalType": "string",
          "name": "",
          "type": "string"
        }
      ],
      "stateMutability": "view",
      "type": "function"
    },
    {
      "inputs": [],
      "name": "baseImage",
      "outputs": [
        {
          "internalType": "string",
          "name": "",
          "type": "string"
        }
      ],
      "stateMutability": "view",
      "type": "function"
    },
    {
      "inputs": [],
      "name": "baseURI",
      "outputs": [
        {
          "internalType": "string",
          "name": "",
          "type": "string"
        }
      ],
      "stateMutability": "view",
      "type": "function"
    },
    {
      "inputs": [],
      "name": "cost",
      "outputs": [
        {
          "internalType": "uint256",
          "name": "",
          "type": "uint256"
        }
      ],
      "stateMutability": "view",
      "type": "function"
    },
    {
      "inputs": [],
      "name": "getAllNFTs",
      "outputs": [
        {
          "components": [
            {
              "internalType": "uint256",
              "name": "id",
              "type": "uint256"
            },
            {
              "internalType": "address",
              "name": "buyer",
              "type": "address"
            },
            {
              "internalType": "uint256",
              "name": "cost",
              "type": "uint256"
            },
            {
              "internalType": "string",
              "name": "imageURL",
              "type": "string"
            },
            {
              "internalType": "uint256",
              "name": "timestamp",
              "type": "uint256"
            }
          ],
          "internalType": "struct Mike.SaleStruct[]",
          "name": "",
          "type": "tuple[]"
        }
      ],
      "stateMutability": "view",
      "type": "function"
    },
    {
      "inputs": [
        {
          "internalType": "uint256",
          "name": "tokenId",
          "type": "uint256"
        }
      ],
      "name": "getAnNFTs",
      "outputs": [
        {
          "components": [
            {
              "internalType": "uint256",
              "name": "id",
              "type": "uint256"
            },
            {
              "internalType": "address",
              "name": "buyer",
              "type": "address"
            },
            {
              "internalType": "uint256",
              "name": "cost",
              "type": "uint256"
            },
            {
              "internalType": "string",
              "name": "imageURL",
              "type": "string"
            },
            {
              "internalType": "uint256",
              "name": "timestamp",
              "type": "uint256"
            }
          ],
          "internalType": "struct Mike.SaleStruct",
          "name": "",
          "type": "tuple"
        }
      ],
      "stateMutability": "view",
      "type": "function"
    },
    {
      "inputs": [
        {
          "internalType": "uint256",
          "name": "tokenId",
          "type": "uint256"
        }
      ],
      "name": "getApproved",
      "outputs": [
        {
          "internalType": "address",
          "name": "",
          "type": "address"
        }
      ],
      "stateMutability": "view",
      "type": "function"
    },
    {
      "inputs": [],
      "name": "getMyNFTs",
      "outputs": [
        {
          "components": [
            {
              "internalType": "uint256",
              "name": "id",
              "type": "uint256"
            },
            {
              "internalType": "address",
              "name": "buyer",
              "type": "address"
            },
            {
              "internalType": "uint256",
              "name": "cost",
              "type": "uint256"
            },
            {
              "internalType": "string",
              "name": "imageURL",
              "type": "string"
            },
            {
              "internalType": "uint256",
              "name": "timestamp",
              "type": "uint256"
            }
          ],
          "internalType": "struct Mike.SaleStruct[]",
          "name": "",
          "type": "tuple[]"
        }
      ],
      "stateMutability": "view",
      "type": "function"
    },
    {
      "inputs": [
        {
          "internalType": "address",
          "name": "owner",
          "type": "address"
        },
        {
          "internalType": "address",
          "name": "operator",
          "type": "address"
        }
      ],
      "name": "isApprovedForAll",
      "outputs": [
        {
          "internalType": "bool",
          "name": "",
          "type": "bool"
        }
      ],
      "stateMutability": "view",
      "type": "function"
    },
    {
      "inputs": [],
      "name": "maxSupply",
      "outputs": [
        {
          "internalType": "uint256",
          "name": "",
          "type": "uint256"
        }
      ],
      "stateMutability": "view",
      "type": "function"
    },
    {
      "inputs": [],
      "name": "name",
      "outputs": [
        {
          "internalType": "string",
          "name": "",
          "type": "string"
        }
      ],
      "stateMutability": "view",
      "type": "function"
    },
    {
      "inputs": [],
      "name": "owner",
      "outputs": [
        {
          "internalType": "address",
          "name": "",
          "type": "address"
        }
      ],
      "stateMutability": "view",
      "type": "function"
    },
    {
      "inputs": [
        {
          "internalType": "uint256",
          "name": "tokenId",
          "type": "uint256"
        }
      ],
      "name": "ownerOf",
      "outputs": [
        {
          "internalType": "address",
          "name": "",
          "type": "address"
        }
      ],
      "stateMutability": "view",
      "type": "function"
    },
    {
      "inputs": [],
      "name": "paused",
      "outputs": [
        {
          "internalType": "bool",
          "name": "",
          "type": "bool"
        }
      ],
      "stateMutability": "view",
      "type": "function"
    },
    {
      "inputs": [
        {
          "internalType": "address",
          "name": "to",
          "type": "address"
        },
        {
          "internalType": "uint256",
          "name": "amount",
          "type": "uint256"
        }
      ],
      "name": "payTo",
      "outputs": [],
      "stateMutability": "nonpayable",
      "type": "function"
    },
    {
      "inputs": [],
      "name": "payToMint",
      "outputs": [],
      "stateMutability": "payable",
      "type": "function"
    },
    {
      "inputs": [],
      "name": "renounceOwnership",
      "outputs": [],
      "stateMutability": "nonpayable",
      "type": "function"
    },
    {
      "inputs": [
        {
          "internalType": "address",
          "name": "from",
          "type": "address"
        },
        {
          "internalType": "address",
          "name": "to",
          "type": "address"
        },
        {
          "internalType": "uint256",
          "name": "tokenId",
          "type": "uint256"
        }
      ],
      "name": "safeTransferFrom",
      "outputs": [],
      "stateMutability": "nonpayable",
      "type": "function"
    },
    {
      "inputs": [
        {
          "internalType": "address",
          "name": "from",
          "type": "address"
        },
        {
          "internalType": "address",
          "name": "to",
          "type": "address"
        },
        {
          "internalType": "uint256",
          "name": "tokenId",
          "type": "uint256"
        },
        {
          "internalType": "bytes",
          "name": "data",
          "type": "bytes"
        }
      ],
      "name": "safeTransferFrom",
      "outputs": [],
      "stateMutability": "nonpayable",
      "type": "function"
    },
    {
      "inputs": [
        {
          "internalType": "address",
          "name": "operator",
          "type": "address"
        },
        {
          "internalType": "bool",
          "name": "approved",
          "type": "bool"
        }
      ],
      "name": "setApprovalForAll",
      "outputs": [],
      "stateMutability": "nonpayable",
      "type": "function"
    },
    {
      "inputs": [
        {
          "internalType": "string",
          "name": "_newBaseURI",
          "type": "string"
        }
      ],
      "name": "setBaseURI",
      "outputs": [],
      "stateMutability": "nonpayable",
      "type": "function"
    },
    {
      "inputs": [
        {
          "internalType": "bool",
          "name": "_state",
          "type": "bool"
        }
      ],
      "name": "setPause",
      "outputs": [],
      "stateMutability": "nonpayable",
      "type": "function"
    },
    {
      "inputs": [
        {
          "internalType": "bytes4",
          "name": "interfaceId",
          "type": "bytes4"
        }
      ],
      "name": "supportsInterface",
      "outputs": [
        {
          "internalType": "bool",
          "name": "",
          "type": "bool"
        }
      ],
      "stateMutability": "view",
      "type": "function"
    },
    {
      "inputs": [],
      "name": "symbol",
      "outputs": [
        {
          "internalType": "string",
          "name": "",
          "type": "string"
        }
      ],
      "stateMutability": "view",
      "type": "function"
    },
    {
      "inputs": [
        {
          "internalType": "uint256",
          "name": "index",
          "type": "uint256"
        }
      ],
      "name": "tokenByIndex",
      "outputs": [
        {
          "internalType": "uint256",
          "name": "",
          "type": "uint256"
        }
      ],
      "stateMutability": "view",
      "type": "function"
    },
    {
      "inputs": [
        {
          "internalType": "address",
          "name": "owner",
          "type": "address"
        },
        {
          "internalType": "uint256",
          "name": "index",
          "type": "uint256"
        }
      ],
      "name": "tokenOfOwnerByIndex",
      "outputs": [
        {
          "internalType": "uint256",
          "name": "",
          "type": "uint256"
        }
      ],
      "stateMutability": "view",
      "type": "function"
    },
    {
      "inputs": [
        {
          "internalType": "uint256",
          "name": "tokenId",
          "type": "uint256"
        }
      ],
      "name": "tokenURI",
      "outputs": [
        {
          "internalType": "string",
          "name": "",
          "type": "string"
        }
      ],
      "stateMutability": "view",
      "type": "function"
    },
    {
      "inputs": [],
      "name": "totalSupply",
      "outputs": [
        {
          "internalType": "uint256",
          "name": "",
          "type": "uint256"
        }
      ],
      "stateMutability": "view",
      "type": "function"
    },
    {
      "inputs": [
        {
          "internalType": "address",
          "name": "from",
          "type": "address"
        },
        {
          "internalType": "address",
          "name": "to",
          "type": "address"
        },
        {
          "internalType": "uint256",
          "name": "tokenId",
          "type": "uint256"
        }
      ],
      "name": "transferFrom",
      "outputs": [],
      "stateMutability": "nonpayable",
      "type": "function"
    },
    {
      "inputs": [
        {
          "internalType": "address",
          "name": "newOwner",
          "type": "address"
        }
      ],
      "name": "transferOwnership",
      "outputs": [],
      "stateMutability": "nonpayable",
      "type": "function"
    }
  ],
  "bytecode": "0x60c0604052600560809081526402e776562760dc1b60a052600c9062000026908262000267565b50604080518082019091526005815264173539b7b760d91b6020820152600d9062000052908262000267565b5066038d7ea4c68000600e556063600f556010805460ff191690553480156200007a57600080fd5b5060405162002cbf38038062002cbf8339810160408190526200009d91620003e5565b82826000620000ad838262000267565b506001620000bc828262000267565b505050620000d9620000d3620000ed60201b60201c565b620000f1565b620000e48162000143565b50505062000476565b3390565b600a80546001600160a01b038381166001600160a01b0319831681179093556040519116919082907f8be0079c531659141344cd1fd0a4f28419497f9722a3daafe3b4186f6b6457e090600090a35050565b6200014d6200015f565b600b6200015b828262000267565b5050565b600a546001600160a01b03163314620001be5760405162461bcd60e51b815260206004820181905260248201527f4f776e61626c653a2063616c6c6572206973206e6f7420746865206f776e6572604482015260640160405180910390fd5b565b634e487b7160e01b600052604160045260246000fd5b600181811c90821680620001eb57607f821691505b6020821081036200020c57634e487b7160e01b600052602260045260246000fd5b50919050565b601f82111562000262576000816000526020600020601f850160051c810160208610156200023d5750805b601f850160051c820191505b818110156200025e5782815560010162000249565b5050505b505050565b81516001600160401b03811115620002835762000283620001c0565b6200029b81620002948454620001d6565b8462000212565b602080601f831160018114620002d35760008415620002ba5750858301515b600019600386901b1c1916600185901b1785556200025e565b600085815260208120601f198616915b828110156200030457888601518255948401946001909101908401620002e3565b5085821015620003235787850151600019600388901b60f8161c191681555b5050505050600190811b01905550565b600082601f8301126200034557600080fd5b81516001600160401b0380821115620003625762000362620001c0565b604051601f8301601f19908116603f011681019082821181831017156200038d576200038d620001c0565b8160405283815260209250866020858801011115620003ab57600080fd5b600091505b83821015620003cf5785820183015181830184015290820190620003b0565b6000602085830101528094505050505092915050565b600080600060608486031215620003fb57600080fd5b83516001600160401b03808211156200041357600080fd5b620004218783880162000333565b945060208601519150808211156200043857600080fd5b620004468783880162000333565b935060408601519150808211156200045d57600080fd5b506200046c8682870162000333565b9150509250925092565b61283980620004866000396000f3fe6080604052600436106101e35760003560e01c806368ef9d3c11610102578063b88d4fde11610095578063d5abeb0111610064578063d5abeb011461054a578063e0391b0914610560578063e985e9c514610575578063f2fde38b146105be57600080fd5b8063b88d4fde146104d5578063bedb86fb146104f5578063c668286214610515578063c87b56dd1461052a57600080fd5b80637bf08621116100d15780637bf08621146104625780638da5cb5b1461048257806395d89b41146104a0578063a22cb465146104b557600080fd5b806368ef9d3c146103eb5780636c0360eb1461041857806370a082311461042d578063715018a61461044d57600080fd5b80632f745c591161017a57806355f804b31161014957806355f804b31461036f5780635c975abb1461038f578063629cb2e4146103a95780636352211e146103cb57600080fd5b80632f745c591461030757806342842e0e146103275780634f6ccce714610347578063509c71801461036757600080fd5b8063095ea7b3116101b6578063095ea7b31461028c57806313faede6146102ae57806318160ddd146102d257806323b872dd146102e757600080fd5b806301ffc9a7146101e857806303b0f38d1461021d57806306fdde031461023f578063081812fc14610254575b600080fd5b3480156101f457600080fd5b50610208610203366004612066565b6105de565b60405190151581526020015b60405180910390f35b34801561022957600080fd5b50610232610609565b60405161021491906120d3565b34801561024b57600080fd5b50610232610697565b34801561026057600080fd5b5061027461026f3660046120e6565b610729565b6040516001600160a01b039091168152602001610214565b34801561029857600080fd5b506102ac6102a736600461211b565b610750565b005b3480156102ba57600080fd5b506102c4600e5481565b604051908152602001610214565b3480156102de57600080fd5b506008546102c4565b3480156102f357600080fd5b506102ac610302366004612145565b61086a565b34801561031357600080fd5b506102c461032236600461211b565b61089b565b34801561033357600080fd5b506102ac610342366004612145565b610931565b34801561035357600080fd5b506102c46103623660046120e6565b61094c565b6102ac6109df565b34801561037b57600080fd5b506102ac61038a36600461220d565b610c44565b34801561039b57600080fd5b506010546102089060ff1681565b3480156103b557600080fd5b506103be610c5c565b60405161021491906122a5565b3480156103d757600080fd5b506102746103e63660046120e6565b610eaf565b3480156103f757600080fd5b5061040b6104063660046120e6565b610f0f565b6040516102149190612309565b34801561042457600080fd5b50610232611033565b34801561043957600080fd5b506102c461044836600461231c565b611040565b34801561045957600080fd5b506102ac6110c6565b34801561046e57600080fd5b506102ac61047d36600461211b565b6110da565b34801561048e57600080fd5b50600a546001600160a01b0316610274565b3480156104ac57600080fd5b50610232611142565b3480156104c157600080fd5b506102ac6104d0366004612347565b611151565b3480156104e157600080fd5b506102ac6104f036600461237a565b61115c565b34801561050157600080fd5b506102ac6105103660046123f6565b611194565b34801561052157600080fd5b506102326111af565b34801561053657600080fd5b506102326105453660046120e6565b6111bc565b34801561055657600080fd5b506102c4600f5481565b34801561056c57600080fd5b506103be61129a565b34801561058157600080fd5b50610208610590366004612411565b6001600160a01b03918216600090815260056020908152604080832093909416825291909152205460ff1690565b3480156105ca57600080fd5b506102ac6105d936600461231c565b6113c0565b60006001600160e01b0319821663780e9d6360e01b1480610603575061060382611439565b92915050565b600c80546106169061243b565b80601f01602080910402602001604051908101604052809291908181526020018280546106429061243b565b801561068f5780601f106106645761010080835404028352916020019161068f565b820191906000526020600020905b81548152906001019060200180831161067257829003601f168201915b505050505081565b6060600080546106a69061243b565b80601f01602080910402602001604051908101604052809291908181526020018280546106d29061243b565b801561071f5780601f106106f45761010080835404028352916020019161071f565b820191906000526020600020905b81548152906001019060200180831161070257829003601f168201915b5050505050905090565b600061073482611489565b506000908152600460205260409020546001600160a01b031690565b600061075b82610eaf565b9050806001600160a01b0316836001600160a01b0316036107cd5760405162461bcd60e51b815260206004820152602160248201527f4552433732313a20617070726f76616c20746f2063757272656e74206f776e656044820152603960f91b60648201526084015b60405180910390fd5b336001600160a01b03821614806107e957506107e98133610590565b61085b5760405162461bcd60e51b815260206004820152603d60248201527f4552433732313a20617070726f76652063616c6c6572206973206e6f7420746f60448201527f6b656e206f776e6572206f7220617070726f76656420666f7220616c6c00000060648201526084016107c4565b61086583836114e8565b505050565b6108743382611556565b6108905760405162461bcd60e51b81526004016107c490612475565b6108658383836115d5565b60006108a683611040565b82106109085760405162461bcd60e51b815260206004820152602b60248201527f455243373231456e756d657261626c653a206f776e657220696e646578206f7560448201526a74206f6620626f756e647360a81b60648201526084016107c4565b506001600160a01b03919091166000908152600660209081526040808320938352929052205490565b6108658383836040518060200160405280600081525061115c565b600061095760085490565b82106109ba5760405162461bcd60e51b815260206004820152602c60248201527f455243373231456e756d657261626c653a20676c6f62616c20696e646578206f60448201526b7574206f6620626f756e647360a01b60648201526084016107c4565b600882815481106109cd576109cd6124c2565b90600052602060002001549050919050565b60006109ea60085490565b60105490915060ff1615610a405760405162461bcd60e51b815260206004820152601760248201527f4e46547320756e646572206d61696e74656e616e63652100000000000000000060448201526064016107c4565b600f548110610a9b5760405162461bcd60e51b815260206004820152602160248201527f536f7272792c20616c6c204e4654732068617665206265656e206d696e7465646044820152602160f81b60648201526084016107c4565b60003411610aeb5760405162461bcd60e51b815260206004820152601a60248201527f457468657220746f6f206c6f7720666f72206d696e74696e672100000000000060448201526064016107c4565b600a546001600160a01b03163314610b0c57600e54341015610b0c57600080fd5b610b2033610b1b8360016124ee565b611746565b60116040518060a00160405280836001610b3a91906124ee565b8152336020820152346040820152606001610b596105458560016124ee565b81524260209182015282546001808201855560009485529382902083516005909202019081559082015192810180546001600160a01b0319166001600160a01b03909416939093179092556040810151600283015560608101519091906003820190610bc59082612551565b5060809190910151600490910155610be16105458260016124ee565b604051610bee9190612611565b604051908190039020337fb9508407a6eccb191d8da3286f4173697cf95604e9ea192fe5ab7c862b5221f6610c248460016124ee565b60408051918252346020830152429082015260600160405180910390a350565b610c4c611760565b600b610c588282612551565b5050565b6011546060906000805b82811015610cc357336001600160a01b031660118281548110610c8b57610c8b6124c2565b60009182526020909120600160059092020101546001600160a01b031603610cbb5781610cb78161262d565b9250505b600101610c66565b5060008167ffffffffffffffff811115610cdf57610cdf612181565b604051908082528060200260200182016040528015610d1857816020015b610d05612018565b815260200190600190039081610cfd5790505b5090506000805b84811015610ea557336001600160a01b031660118281548110610d4457610d446124c2565b60009182526020909120600160059092020101546001600160a01b031603610e9d5760118181548110610d7957610d796124c2565b90600052602060002090600502016040518060a0016040529081600082015481526020016001820160009054906101000a90046001600160a01b03166001600160a01b03166001600160a01b0316815260200160028201548152602001600382018054610de59061243b565b80601f0160208091040260200160405190810160405280929190818152602001828054610e119061243b565b8015610e5e5780601f10610e3357610100808354040283529160200191610e5e565b820191906000526020600020905b815481529060010190602001808311610e4157829003601f168201915b50505050508152602001600482015481525050838381518110610e8357610e836124c2565b60200260200101819052508180610e999061262d565b9250505b600101610d1f565b5090949350505050565b6000818152600260205260408120546001600160a01b0316806106035760405162461bcd60e51b8152602060048201526018602482015277115490cdcc8c4e881a5b9d985b1a59081d1bdad95b88125160421b60448201526064016107c4565b610f17612018565b6011610f24600184612646565b81548110610f3457610f346124c2565b90600052602060002090600502016040518060a0016040529081600082015481526020016001820160009054906101000a90046001600160a01b03166001600160a01b03166001600160a01b0316815260200160028201548152602001600382018054610fa09061243b565b80601f0160208091040260200160405190810160405280929190818152602001828054610fcc9061243b565b80156110195780601f10610fee57610100808354040283529160200191611019565b820191906000526020600020905b815481529060010190602001808311610ffc57829003601f168201915b505050505081526020016004820154815250509050919050565b600b80546106169061243b565b60006001600160a01b0382166110aa5760405162461bcd60e51b815260206004820152602960248201527f4552433732313a2061646472657373207a65726f206973206e6f7420612076616044820152683634b21037bbb732b960b91b60648201526084016107c4565b506001600160a01b031660009081526003602052604090205490565b6110ce611760565b6110d860006117ba565b565b6110e2611760565b6000826001600160a01b03168260405160006040518083038185875af1925050503d806000811461112f576040519150601f19603f3d011682016040523d82523d6000602084013e611134565b606091505b505090508061086557600080fd5b6060600180546106a69061243b565b610c5833838361180c565b6111663383611556565b6111825760405162461bcd60e51b81526004016107c490612475565b61118e848484846118da565b50505050565b61119c611760565b6010805460ff1916911515919091179055565b600d80546106169061243b565b6000818152600260205260409020546060906001600160a01b031661123b5760405162461bcd60e51b815260206004820152602f60248201527f4552433732314d657461646174613a2055524920717565727920666f72206e6f60448201526e3732bc34b9ba32b73a103a37b5b2b760891b60648201526084016107c4565b600061124561190d565b905060008151116112655760405180602001604052806000815250611293565b8061126f8461191c565b600d60405160200161128393929190612659565b6040516020818303038152906040525b9392505050565b60606011805480602002602001604051908101604052809291908181526020016000905b828210156113b75760008481526020908190206040805160a081018252600586029092018054835260018101546001600160a01b03169383019390935260028301549082015260038201805491929160608401919061131c9061243b565b80601f01602080910402602001604051908101604052809291908181526020018280546113489061243b565b80156113955780601f1061136a57610100808354040283529160200191611395565b820191906000526020600020905b81548152906001019060200180831161137857829003601f168201915b50505050508152602001600482015481525050815260200190600101906112be565b50505050905090565b6113c8611760565b6001600160a01b03811661142d5760405162461bcd60e51b815260206004820152602660248201527f4f776e61626c653a206e6577206f776e657220697320746865207a65726f206160448201526564647265737360d01b60648201526084016107c4565b611436816117ba565b50565b60006001600160e01b031982166380ac58cd60e01b148061146a57506001600160e01b03198216635b5e139f60e01b145b8061060357506301ffc9a760e01b6001600160e01b0319831614610603565b6000818152600260205260409020546001600160a01b03166114365760405162461bcd60e51b8152602060048201526018602482015277115490cdcc8c4e881a5b9d985b1a59081d1bdad95b88125160421b60448201526064016107c4565b600081815260046020526040902080546001600160a01b0319166001600160a01b038416908117909155819061151d82610eaf565b6001600160a01b03167f8c5be1e5ebec7d5bd14f71427d1e84f3dd0314c0f7b2291e5b200ac8c7c3b92560405160405180910390a45050565b60008061156283610eaf565b9050806001600160a01b0316846001600160a01b031614806115a957506001600160a01b0380821660009081526005602090815260408083209388168352929052205460ff165b806115cd5750836001600160a01b03166115c284610729565b6001600160a01b0316145b949350505050565b826001600160a01b03166115e882610eaf565b6001600160a01b03161461160e5760405162461bcd60e51b81526004016107c4906126fc565b6001600160a01b0382166116705760405162461bcd60e51b8152602060048201526024808201527f4552433732313a207472616e7366657220746f20746865207a65726f206164646044820152637265737360e01b60648201526084016107c4565b61167d83838360016119af565b826001600160a01b031661169082610eaf565b6001600160a01b0316146116b65760405162461bcd60e51b81526004016107c4906126fc565b600081815260046020908152604080832080546001600160a01b03199081169091556001600160a01b0387811680865260038552838620805460001901905590871680865283862080546001019055868652600290945282852080549092168417909155905184937fddf252ad1be2c89b69c2b068fc378daa952ba7f163c4a11628f55a4df523b3ef91a4505050565b610c58828260405180602001604052806000815250611ae3565b600a546001600160a01b031633146110d85760405162461bcd60e51b815260206004820181905260248201527f4f776e61626c653a2063616c6c6572206973206e6f7420746865206f776e657260448201526064016107c4565b600a80546001600160a01b038381166001600160a01b0319831681179093556040519116919082907f8be0079c531659141344cd1fd0a4f28419497f9722a3daafe3b4186f6b6457e090600090a35050565b816001600160a01b0316836001600160a01b03160361186d5760405162461bcd60e51b815260206004820152601960248201527f4552433732313a20617070726f766520746f2063616c6c65720000000000000060448201526064016107c4565b6001600160a01b03838116600081815260056020908152604080832094871680845294825291829020805460ff191686151590811790915591519182527f17307eab39ab6107e8899845ad3d59bd9653f200f220920489ca2b5937696c31910160405180910390a3505050565b6118e58484846115d5565b6118f184848484611b16565b61118e5760405162461bcd60e51b81526004016107c490612741565b6060600b80546106a69061243b565b6060600061192983611c17565b600101905060008167ffffffffffffffff81111561194957611949612181565b6040519080825280601f01601f191660200182016040528015611973576020820181803683370190505b5090508181016020015b600019016f181899199a1a9b1b9c1cb0b131b232b360811b600a86061a8153600a850494508461197d57509392505050565b6001811115611a1e5760405162461bcd60e51b815260206004820152603560248201527f455243373231456e756d657261626c653a20636f6e7365637574697665207472604482015274185b9cd9995c9cc81b9bdd081cdd5c1c1bdc9d1959605a1b60648201526084016107c4565b816001600160a01b038516611a7a57611a7581600880546000838152600960205260408120829055600182018355919091527ff3f7a9fe364faab93b216da50a3214154f22a0a2b415b23a84c8169e8b636ee30155565b611a9d565b836001600160a01b0316856001600160a01b031614611a9d57611a9d8582611cef565b6001600160a01b038416611ab957611ab481611d8c565b611adc565b846001600160a01b0316846001600160a01b031614611adc57611adc8482611e3b565b5050505050565b611aed8383611e7f565b611afa6000848484611b16565b6108655760405162461bcd60e51b81526004016107c490612741565b60006001600160a01b0384163b15611c0c57604051630a85bd0160e11b81526001600160a01b0385169063150b7a0290611b5a903390899088908890600401612793565b6020604051808303816000875af1925050508015611b95575060408051601f3d908101601f19168201909252611b92918101906127d0565b60015b611bf2573d808015611bc3576040519150601f19603f3d011682016040523d82523d6000602084013e611bc8565b606091505b508051600003611bea5760405162461bcd60e51b81526004016107c490612741565b805181602001fd5b6001600160e01b031916630a85bd0160e11b1490506115cd565b506001949350505050565b60008072184f03e93ff9f4daa797ed6e38ed64bf6a1f0160401b8310611c565772184f03e93ff9f4daa797ed6e38ed64bf6a1f0160401b830492506040015b6d04ee2d6d415b85acef81000000008310611c82576d04ee2d6d415b85acef8100000000830492506020015b662386f26fc100008310611ca057662386f26fc10000830492506010015b6305f5e1008310611cb8576305f5e100830492506008015b6127108310611ccc57612710830492506004015b60648310611cde576064830492506002015b600a83106106035760010192915050565b60006001611cfc84611040565b611d069190612646565b600083815260076020526040902054909150808214611d59576001600160a01b03841660009081526006602090815260408083208584528252808320548484528184208190558352600790915290208190555b5060009182526007602090815260408084208490556001600160a01b039094168352600681528383209183525290812055565b600854600090611d9e90600190612646565b60008381526009602052604081205460088054939450909284908110611dc657611dc66124c2565b906000526020600020015490508060088381548110611de757611de76124c2565b6000918252602080832090910192909255828152600990915260408082208490558582528120556008805480611e1f57611e1f6127ed565b6001900381819060005260206000200160009055905550505050565b6000611e4683611040565b6001600160a01b039093166000908152600660209081526040808320868452825280832085905593825260079052919091209190915550565b6001600160a01b038216611ed55760405162461bcd60e51b815260206004820181905260248201527f4552433732313a206d696e7420746f20746865207a65726f206164647265737360448201526064016107c4565b6000818152600260205260409020546001600160a01b031615611f3a5760405162461bcd60e51b815260206004820152601c60248201527f4552433732313a20746f6b656e20616c7265616479206d696e7465640000000060448201526064016107c4565b611f486000838360016119af565b6000818152600260205260409020546001600160a01b031615611fad5760405162461bcd60e51b815260206004820152601c60248201527f4552433732313a20746f6b656e20616c7265616479206d696e7465640000000060448201526064016107c4565b6001600160a01b038216600081815260036020908152604080832080546001019055848352600290915280822080546001600160a01b0319168417905551839291907fddf252ad1be2c89b69c2b068fc378daa952ba7f163c4a11628f55a4df523b3ef908290a45050565b6040518060a001604052806000815260200160006001600160a01b031681526020016000815260200160608152602001600081525090565b6001600160e01b03198116811461143657600080fd5b60006020828403121561207857600080fd5b813561129381612050565b60005b8381101561209e578181015183820152602001612086565b50506000910152565b600081518084526120bf816020860160208601612083565b601f01601f19169290920160200192915050565b60208152600061129360208301846120a7565b6000602082840312156120f857600080fd5b5035919050565b80356001600160a01b038116811461211657600080fd5b919050565b6000806040838503121561212e57600080fd5b612137836120ff565b946020939093013593505050565b60008060006060848603121561215a57600080fd5b612163846120ff565b9250612171602085016120ff565b9150604084013590509250925092565b634e487b7160e01b600052604160045260246000fd5b600067ffffffffffffffff808411156121b2576121b2612181565b604051601f8501601f19908116603f011681019082821181831017156121da576121da612181565b816040528093508581528686860111156121f357600080fd5b858560208301376000602087830101525050509392505050565b60006020828403121561221f57600080fd5b813567ffffffffffffffff81111561223657600080fd5b8201601f8101841361224757600080fd5b6115cd84823560208401612197565b8051825260018060a01b036020820151166020830152604081015160408301526000606082015160a0606085015261229160a08501826120a7565b608093840151949093019390935250919050565b600060208083016020845280855180835260408601915060408160051b87010192506020870160005b828110156122fc57603f198886030184526122ea858351612256565b945092850192908501906001016122ce565b5092979650505050505050565b6020815260006112936020830184612256565b60006020828403121561232e57600080fd5b611293826120ff565b8035801515811461211657600080fd5b6000806040838503121561235a57600080fd5b612363836120ff565b915061237160208401612337565b90509250929050565b6000806000806080858703121561239057600080fd5b612399856120ff565b93506123a7602086016120ff565b925060408501359150606085013567ffffffffffffffff8111156123ca57600080fd5b8501601f810187136123db57600080fd5b6123ea87823560208401612197565b91505092959194509250565b60006020828403121561240857600080fd5b61129382612337565b6000806040838503121561242457600080fd5b61242d836120ff565b9150612371602084016120ff565b600181811c9082168061244f57607f821691505b60208210810361246f57634e487b7160e01b600052602260045260246000fd5b50919050565b6020808252602d908201527f4552433732313a2063616c6c6572206973206e6f7420746f6b656e206f776e6560408201526c1c881bdc88185c1c1c9bdd9959609a1b606082015260800190565b634e487b7160e01b600052603260045260246000fd5b634e487b7160e01b600052601160045260246000fd5b80820180821115610603576106036124d8565b601f821115610865576000816000526020600020601f850160051c8101602086101561252a5750805b601f850160051c820191505b8181101561254957828155600101612536565b505050505050565b815167ffffffffffffffff81111561256b5761256b612181565b61257f81612579845461243b565b84612501565b602080601f8311600181146125b4576000841561259c5750858301515b600019600386901b1c1916600185901b178555612549565b600085815260208120601f198616915b828110156125e3578886015182559484019460019091019084016125c4565b50858210156126015787850151600019600388901b60f8161c191681555b5050505050600190811b01905550565b60008251612623818460208701612083565b9190910192915050565b60006001820161263f5761263f6124d8565b5060010190565b81810381811115610603576106036124d8565b60008451602061266d828560208a01612083565b855191840191612681818460208a01612083565b85549201916000906126928161243b565b600182811680156126aa57600181146126bf576126ec565b60ff19841687528215158302870194506126ec565b89600052602060002060005b848110156126e4578154898201529083019087016126cb565b505082870194505b50929a9950505050505050505050565b60208082526025908201527f4552433732313a207472616e736665722066726f6d20696e636f72726563742060408201526437bbb732b960d91b606082015260800190565b60208082526032908201527f4552433732313a207472616e7366657220746f206e6f6e20455243373231526560408201527131b2b4bb32b91034b6b83632b6b2b73a32b960711b606082015260800190565b6001600160a01b03858116825284166020820152604081018390526080606082018190526000906127c6908301846120a7565b9695505050505050565b6000602082840312156127e257600080fd5b815161129381612050565b634e487b7160e01b600052603160045260246000fdfea2646970667358221220de67723f7509c50fb5e019ecdb2094b6d432807d45b2f797a48154c27cee484264736f6c63430008180033",
  "linkReferences": {},
  "deployedLinkReferences": {}
}